{
  "_format": "hh-sol-artifact-1",
  "contractName": "NFTCertificate",
  "sourceName": "contracts/NFTCertificateGenerator.sol",
  "abi": [
    {
      "inputs": [],
      "stateMutability": "nonpayable",
      "type": "constructor"
    },
    {
      "inputs": [
        {
          "internalType": "address",
          "name": "sender",
          "type": "address"
        },
        {
          "internalType": "uint256",
          "name": "tokenId",
          "type": "uint256"
        },
        {
          "internalType": "address",
          "name": "owner",
          "type": "address"
        }
      ],
      "name": "ERC721IncorrectOwner",
      "type": "error"
    },
    {
      "inputs": [
        {
          "internalType": "address",
          "name": "operator",
          "type": "address"
        },
        {
          "internalType": "uint256",
          "name": "tokenId",
          "type": "uint256"
        }
      ],
      "name": "ERC721InsufficientApproval",
      "type": "error"
    },
    {
      "inputs": [
        {
          "internalType": "address",
          "name": "approver",
          "type": "address"
        }
      ],
      "name": "ERC721InvalidApprover",
      "type": "error"
    },
    {
      "inputs": [
        {
          "internalType": "address",
          "name": "operator",
          "type": "address"
        }
      ],
      "name": "ERC721InvalidOperator",
      "type": "error"
    },
    {
      "inputs": [
        {
          "internalType": "address",
          "name": "owner",
          "type": "address"
        }
      ],
      "name": "ERC721InvalidOwner",
      "type": "error"
    },
    {
      "inputs": [
        {
          "internalType": "address",
          "name": "receiver",
          "type": "address"
        }
      ],
      "name": "ERC721InvalidReceiver",
      "type": "error"
    },
    {
      "inputs": [
        {
          "internalType": "address",
          "name": "sender",
          "type": "address"
        }
      ],
      "name": "ERC721InvalidSender",
      "type": "error"
    },
    {
      "inputs": [
        {
          "internalType": "uint256",
          "name": "tokenId",
          "type": "uint256"
        }
      ],
      "name": "ERC721NonexistentToken",
      "type": "error"
    },
    {
      "anonymous": false,
      "inputs": [
        {
          "indexed": true,
          "internalType": "address",
          "name": "owner",
          "type": "address"
        },
        {
          "indexed": true,
          "internalType": "address",
          "name": "approved",
          "type": "address"
        },
        {
          "indexed": true,
          "internalType": "uint256",
          "name": "tokenId",
          "type": "uint256"
        }
      ],
      "name": "Approval",
      "type": "event"
    },
    {
      "anonymous": false,
      "inputs": [
        {
          "indexed": true,
          "internalType": "address",
          "name": "owner",
          "type": "address"
        },
        {
          "indexed": true,
          "internalType": "address",
          "name": "operator",
          "type": "address"
        },
        {
          "indexed": false,
          "internalType": "bool",
          "name": "approved",
          "type": "bool"
        }
      ],
      "name": "ApprovalForAll",
      "type": "event"
    },
    {
      "anonymous": false,
      "inputs": [
        {
          "indexed": false,
          "internalType": "uint256",
          "name": "_fromTokenId",
          "type": "uint256"
        },
        {
          "indexed": false,
          "internalType": "uint256",
          "name": "_toTokenId",
          "type": "uint256"
        }
      ],
      "name": "BatchMetadataUpdate",
      "type": "event"
    },
    {
      "anonymous": false,
      "inputs": [
        {
          "indexed": false,
          "internalType": "uint256",
          "name": "_tokenId",
          "type": "uint256"
        }
      ],
      "name": "MetadataUpdate",
      "type": "event"
    },
    {
      "anonymous": false,
      "inputs": [
        {
          "indexed": true,
          "internalType": "address",
          "name": "from",
          "type": "address"
        },
        {
          "indexed": true,
          "internalType": "address",
          "name": "to",
          "type": "address"
        },
        {
          "indexed": true,
          "internalType": "uint256",
          "name": "tokenId",
          "type": "uint256"
        }
      ],
      "name": "Transfer",
      "type": "event"
    },
    {
      "inputs": [
        {
          "internalType": "address",
          "name": "to",
          "type": "address"
        },
        {
          "internalType": "uint256",
          "name": "tokenId",
          "type": "uint256"
        }
      ],
      "name": "approve",
      "outputs": [],
      "stateMutability": "nonpayable",
      "type": "function"
    },
    {
      "inputs": [
        {
          "internalType": "address",
          "name": "owner",
          "type": "address"
        }
      ],
      "name": "balanceOf",
      "outputs": [
        {
          "internalType": "uint256",
          "name": "",
          "type": "uint256"
        }
      ],
      "stateMutability": "view",
      "type": "function"
    },
    {
      "inputs": [
        {
          "internalType": "uint256",
          "name": "tokenId",
          "type": "uint256"
        }
      ],
      "name": "getApproved",
      "outputs": [
        {
          "internalType": "address",
          "name": "",
          "type": "address"
        }
      ],
      "stateMutability": "view",
      "type": "function"
    },
    {
      "inputs": [
        {
          "internalType": "uint256",
          "name": "_tokenId",
          "type": "uint256"
        }
      ],
      "name": "getNFTDetails",
      "outputs": [
        {
          "components": [
            {
              "internalType": "uint256",
              "name": "tokenId",
              "type": "uint256"
            },
            {
              "internalType": "address",
              "name": "owner",
              "type": "address"
            },
            {
              "internalType": "string",
              "name": "name",
              "type": "string"
            },
            {
              "internalType": "string",
              "name": "tokenURI",
              "type": "string"
            },
            {
              "internalType": "string",
              "name": "courseName",
              "type": "string"
            },
            {
              "internalType": "string",
              "name": "issueDate",
              "type": "string"
            },
            {
              "internalType": "address",
              "name": "issuerAddress",
              "type": "address"
            }
          ],
          "internalType": "struct NFTCertificate.NFT",
          "name": "",
          "type": "tuple"
        }
      ],
      "stateMutability": "view",
      "type": "function"
    },
    {
      "inputs": [
        {
          "internalType": "address",
          "name": "owner",
          "type": "address"
        },
        {
          "internalType": "address",
          "name": "operator",
          "type": "address"
        }
      ],
      "name": "isApprovedForAll",
      "outputs": [
        {
          "internalType": "bool",
          "name": "",
          "type": "bool"
        }
      ],
      "stateMutability": "view",
      "type": "function"
    },
    {
      "inputs": [
        {
          "internalType": "address",
          "name": "_receipentAddress",
          "type": "address"
        },
        {
          "internalType": "string",
          "name": "_name",
          "type": "string"
        },
        {
          "internalType": "string",
          "name": "_tokenURI",
          "type": "string"
        },
        {
          "internalType": "string",
          "name": "_courseName",
          "type": "string"
        },
        {
          "internalType": "string",
          "name": "_issueDate",
          "type": "string"
        }
      ],
      "name": "mintMyNFT",
      "outputs": [],
      "stateMutability": "nonpayable",
      "type": "function"
    },
    {
      "inputs": [],
      "name": "name",
      "outputs": [
        {
          "internalType": "string",
          "name": "",
          "type": "string"
        }
      ],
      "stateMutability": "view",
      "type": "function"
    },
    {
      "inputs": [
        {
          "internalType": "uint256",
          "name": "tokenId",
          "type": "uint256"
        }
      ],
      "name": "ownerOf",
      "outputs": [
        {
          "internalType": "address",
          "name": "",
          "type": "address"
        }
      ],
      "stateMutability": "view",
      "type": "function"
    },
    {
      "inputs": [
        {
          "internalType": "address",
          "name": "from",
          "type": "address"
        },
        {
          "internalType": "address",
          "name": "to",
          "type": "address"
        },
        {
          "internalType": "uint256",
          "name": "tokenId",
          "type": "uint256"
        }
      ],
      "name": "safeTransferFrom",
      "outputs": [],
      "stateMutability": "nonpayable",
      "type": "function"
    },
    {
      "inputs": [
        {
          "internalType": "address",
          "name": "from",
          "type": "address"
        },
        {
          "internalType": "address",
          "name": "to",
          "type": "address"
        },
        {
          "internalType": "uint256",
          "name": "tokenId",
          "type": "uint256"
        },
        {
          "internalType": "bytes",
          "name": "data",
          "type": "bytes"
        }
      ],
      "name": "safeTransferFrom",
      "outputs": [],
      "stateMutability": "nonpayable",
      "type": "function"
    },
    {
      "inputs": [
        {
          "internalType": "address",
          "name": "operator",
          "type": "address"
        },
        {
          "internalType": "bool",
          "name": "approved",
          "type": "bool"
        }
      ],
      "name": "setApprovalForAll",
      "outputs": [],
      "stateMutability": "nonpayable",
      "type": "function"
    },
    {
      "inputs": [
        {
          "internalType": "bytes4",
          "name": "interfaceId",
          "type": "bytes4"
        }
      ],
      "name": "supportsInterface",
      "outputs": [
        {
          "internalType": "bool",
          "name": "",
          "type": "bool"
        }
      ],
      "stateMutability": "view",
      "type": "function"
    },
    {
      "inputs": [],
      "name": "symbol",
      "outputs": [
        {
          "internalType": "string",
          "name": "",
          "type": "string"
        }
      ],
      "stateMutability": "view",
      "type": "function"
    },
    {
      "inputs": [
        {
          "internalType": "uint256",
          "name": "tokenId",
          "type": "uint256"
        }
      ],
      "name": "tokenURI",
      "outputs": [
        {
          "internalType": "string",
          "name": "",
          "type": "string"
        }
      ],
      "stateMutability": "view",
      "type": "function"
    },
    {
      "inputs": [
        {
          "internalType": "address",
          "name": "from",
          "type": "address"
        },
        {
          "internalType": "address",
          "name": "to",
          "type": "address"
        },
        {
          "internalType": "uint256",
          "name": "tokenId",
          "type": "uint256"
        }
      ],
      "name": "transferFrom",
      "outputs": [],
      "stateMutability": "nonpayable",
      "type": "function"
    }
  ],
  "bytecode": "0x608060405234801561001057600080fd5b506040518060400160405280600581526020017f4d594e46540000000000000000000000000000000000000000000000000000008152506040518060400160405280600281526020017f4d4e000000000000000000000000000000000000000000000000000000000000815250816000908161008c91906102fc565b50806001908161009c91906102fc565b50505060016007819055506103ce565b600081519050919050565b7f4e487b7100000000000000000000000000000000000000000000000000000000600052604160045260246000fd5b7f4e487b7100000000000000000000000000000000000000000000000000000000600052602260045260246000fd5b6000600282049050600182168061012d57607f821691505b6020821081036101405761013f6100e6565b5b50919050565b60008190508160005260206000209050919050565b60006020601f8301049050919050565b600082821b905092915050565b6000600883026101a87fffffffffffffffffffffffffffffffffffffffffffffffffffffffffffffffff8261016b565b6101b2868361016b565b95508019841693508086168417925050509392505050565b6000819050919050565b6000819050919050565b60006101f96101f46101ef846101ca565b6101d4565b6101ca565b9050919050565b6000819050919050565b610213836101de565b61022761021f82610200565b848454610178565b825550505050565b600090565b61023c61022f565b61024781848461020a565b505050565b5b8181101561026b57610260600082610234565b60018101905061024d565b5050565b601f8211156102b05761028181610146565b61028a8461015b565b81016020851015610299578190505b6102ad6102a58561015b565b83018261024c565b50505b505050565b600082821c905092915050565b60006102d3600019846008026102b5565b1980831691505092915050565b60006102ec83836102c2565b9150826002028217905092915050565b610305826100ac565b67ffffffffffffffff81111561031e5761031d6100b7565b5b6103288254610115565b61033382828561026f565b600060209050601f8311600181146103665760008415610354578287015190505b61035e85826102e0565b8655506103c6565b601f19841661037486610146565b60005b8281101561039c57848901518255600182019150602085019450602081019050610377565b868310156103b957848901516103b5601f8916826102c2565b8355505b6001600288020188555050505b505050505050565b612abc806103dd6000396000f3fe608060405234801561001057600080fd5b50600436106100f55760003560e01c80636352211e11610097578063a22cb46511610066578063a22cb46514610296578063b88d4fde146102b2578063c87b56dd146102ce578063e985e9c5146102fe576100f5565b80636352211e146101e857806370a082311461021857806382260f351461024857806395d89b4114610278576100f5565b8063095ea7b3116100d3578063095ea7b31461017857806323b872dd1461019457806342842e0e146101b05780635e770d07146101cc576100f5565b806301ffc9a7146100fa57806306fdde031461012a578063081812fc14610148575b600080fd5b610114600480360381019061010f9190611d4a565b61032e565b6040516101219190611d92565b60405180910390f35b610132610410565b60405161013f9190611e3d565b60405180910390f35b610162600480360381019061015d9190611e95565b6104a2565b60405161016f9190611f03565b60405180910390f35b610192600480360381019061018d9190611f4a565b6104be565b005b6101ae60048036038101906101a99190611f8a565b6104d4565b005b6101ca60048036038101906101c59190611f8a565b6105d6565b005b6101e660048036038101906101e19190612112565b6105f6565b005b61020260048036038101906101fd9190611e95565b610798565b60405161020f9190611f03565b60405180910390f35b610232600480360381019061022d91906121fd565b6107aa565b60405161023f9190612239565b60405180910390f35b610262600480360381019061025d9190611e95565b610864565b60405161026f919061236d565b60405180910390f35b610280610b8f565b60405161028d9190611e3d565b60405180910390f35b6102b060048036038101906102ab91906123bb565b610c21565b005b6102cc60048036038101906102c7919061249c565b610c37565b005b6102e860048036038101906102e39190611e95565b610c5c565b6040516102f59190611e3d565b60405180910390f35b6103186004803603810190610313919061251f565b610cc5565b6040516103259190611d92565b60405180910390f35b60007f80ac58cd000000000000000000000000000000000000000000000000000000007bffffffffffffffffffffffffffffffffffffffffffffffffffffffff1916827bffffffffffffffffffffffffffffffffffffffffffffffffffffffff191614806103f957507f5b5e139f000000000000000000000000000000000000000000000000000000007bffffffffffffffffffffffffffffffffffffffffffffffffffffffff1916827bffffffffffffffffffffffffffffffffffffffffffffffffffffffff1916145b80610409575061040882610d59565b5b9050919050565b60606000805461041f9061258e565b80601f016020809104026020016040519081016040528092919081815260200182805461044b9061258e565b80156104985780601f1061046d57610100808354040283529160200191610498565b820191906000526020600020905b81548152906001019060200180831161047b57829003601f168201915b5050505050905090565b60006104ad82610dba565b506104b782610e42565b9050919050565b6104d082826104cb610e7f565b610e87565b5050565b600073ffffffffffffffffffffffffffffffffffffffff168273ffffffffffffffffffffffffffffffffffffffff16036105465760006040517f64a0ae9200000000000000000000000000000000000000000000000000000000815260040161053d9190611f03565b60405180910390fd5b600061055a8383610555610e7f565b610e99565b90508373ffffffffffffffffffffffffffffffffffffffff168173ffffffffffffffffffffffffffffffffffffffff16146105d0578382826040517f64283d7b0000000000000000000000000000000000000000000000000000000081526004016105c7939291906125bf565b60405180910390fd5b50505050565b6105f183838360405180602001604052806000815250610c37565b505050565b610602856007546110b3565b61060e600754846110d1565b60006040518060e0016040528060075481526020018773ffffffffffffffffffffffffffffffffffffffff1681526020018681526020018581526020018481526020018381526020013373ffffffffffffffffffffffffffffffffffffffff16815250905080600860006007600081548092919061068b90612625565b9190505581526020019081526020016000206000820151816000015560208201518160010160006101000a81548173ffffffffffffffffffffffffffffffffffffffff021916908373ffffffffffffffffffffffffffffffffffffffff16021790555060408201518160020190816107039190612819565b5060608201518160030190816107199190612819565b50608082015181600401908161072f9190612819565b5060a08201518160050190816107459190612819565b5060c08201518160060160006101000a81548173ffffffffffffffffffffffffffffffffffffffff021916908373ffffffffffffffffffffffffffffffffffffffff160217905550905050505050505050565b60006107a382610dba565b9050919050565b60008073ffffffffffffffffffffffffffffffffffffffff168273ffffffffffffffffffffffffffffffffffffffff160361081d5760006040517f89c62b640000000000000000000000000000000000000000000000000000000081526004016108149190611f03565b60405180910390fd5b600360008373ffffffffffffffffffffffffffffffffffffffff1673ffffffffffffffffffffffffffffffffffffffff168152602001908152602001600020549050919050565b61086c611c75565b600860008381526020019081526020016000206040518060e0016040529081600082015481526020016001820160009054906101000a900473ffffffffffffffffffffffffffffffffffffffff1673ffffffffffffffffffffffffffffffffffffffff1673ffffffffffffffffffffffffffffffffffffffff1681526020016002820180546108fa9061258e565b80601f01602080910402602001604051908101604052809291908181526020018280546109269061258e565b80156109735780601f1061094857610100808354040283529160200191610973565b820191906000526020600020905b81548152906001019060200180831161095657829003601f168201915b5050505050815260200160038201805461098c9061258e565b80601f01602080910402602001604051908101604052809291908181526020018280546109b89061258e565b8015610a055780601f106109da57610100808354040283529160200191610a05565b820191906000526020600020905b8154815290600101906020018083116109e857829003601f168201915b50505050508152602001600482018054610a1e9061258e565b80601f0160208091040260200160405190810160405280929190818152602001828054610a4a9061258e565b8015610a975780601f10610a6c57610100808354040283529160200191610a97565b820191906000526020600020905b815481529060010190602001808311610a7a57829003601f168201915b50505050508152602001600582018054610ab09061258e565b80601f0160208091040260200160405190810160405280929190818152602001828054610adc9061258e565b8015610b295780601f10610afe57610100808354040283529160200191610b29565b820191906000526020600020905b815481529060010190602001808311610b0c57829003601f168201915b505050505081526020016006820160009054906101000a900473ffffffffffffffffffffffffffffffffffffffff1673ffffffffffffffffffffffffffffffffffffffff1673ffffffffffffffffffffffffffffffffffffffff16815250509050919050565b606060018054610b9e9061258e565b80601f0160208091040260200160405190810160405280929190818152602001828054610bca9061258e565b8015610c175780601f10610bec57610100808354040283529160200191610c17565b820191906000526020600020905b815481529060010190602001808311610bfa57829003601f168201915b5050505050905090565b610c33610c2c610e7f565b838361112d565b5050565b610c428484846104d4565b610c56610c4d610e7f565b8585858561129c565b50505050565b6060610c6782610dba565b506000610c7261144d565b90506000815111610c925760405180602001604052806000815250610cbd565b80610c9c84611464565b604051602001610cad929190612927565b6040516020818303038152906040525b915050919050565b6000600560008473ffffffffffffffffffffffffffffffffffffffff1673ffffffffffffffffffffffffffffffffffffffff16815260200190815260200160002060008373ffffffffffffffffffffffffffffffffffffffff1673ffffffffffffffffffffffffffffffffffffffff16815260200190815260200160002060009054906101000a900460ff16905092915050565b6000634906490660e01b7bffffffffffffffffffffffffffffffffffffffffffffffffffffffff1916827bffffffffffffffffffffffffffffffffffffffffffffffffffffffff19161480610db35750610db282611532565b5b9050919050565b600080610dc683611614565b9050600073ffffffffffffffffffffffffffffffffffffffff168173ffffffffffffffffffffffffffffffffffffffff1603610e3957826040517f7e273289000000000000000000000000000000000000000000000000000000008152600401610e309190612239565b60405180910390fd5b80915050919050565b60006004600083815260200190815260200160002060009054906101000a900473ffffffffffffffffffffffffffffffffffffffff169050919050565b600033905090565b610e948383836001611651565b505050565b600080610ea584611614565b9050600073ffffffffffffffffffffffffffffffffffffffff168373ffffffffffffffffffffffffffffffffffffffff1614610ee757610ee6818486611816565b5b600073ffffffffffffffffffffffffffffffffffffffff168173ffffffffffffffffffffffffffffffffffffffff1614610f7857610f29600085600080611651565b6001600360008373ffffffffffffffffffffffffffffffffffffffff1673ffffffffffffffffffffffffffffffffffffffff168152602001908152602001600020600082825403925050819055505b600073ffffffffffffffffffffffffffffffffffffffff168573ffffffffffffffffffffffffffffffffffffffff1614610ffb576001600360008773ffffffffffffffffffffffffffffffffffffffff1673ffffffffffffffffffffffffffffffffffffffff168152602001908152602001600020600082825401925050819055505b846002600086815260200190815260200160002060006101000a81548173ffffffffffffffffffffffffffffffffffffffff021916908373ffffffffffffffffffffffffffffffffffffffff160217905550838573ffffffffffffffffffffffffffffffffffffffff168273ffffffffffffffffffffffffffffffffffffffff167fddf252ad1be2c89b69c2b068fc378daa952ba7f163c4a11628f55a4df523b3ef60405160405180910390a4809150509392505050565b6110cd8282604051806020016040528060008152506118da565b5050565b806006600084815260200190815260200160002090816110f19190612819565b507ff8e1a15aba9398e019f0b49df1a4fde98ee17ae345cb5f6b5e2c27f5033e8ce7826040516111219190612239565b60405180910390a15050565b600073ffffffffffffffffffffffffffffffffffffffff168273ffffffffffffffffffffffffffffffffffffffff160361119e57816040517f5b08ba180000000000000000000000000000000000000000000000000000000081526004016111959190611f03565b60405180910390fd5b80600560008573ffffffffffffffffffffffffffffffffffffffff1673ffffffffffffffffffffffffffffffffffffffff16815260200190815260200160002060008473ffffffffffffffffffffffffffffffffffffffff1673ffffffffffffffffffffffffffffffffffffffff16815260200190815260200160002060006101000a81548160ff0219169083151502179055508173ffffffffffffffffffffffffffffffffffffffff168373ffffffffffffffffffffffffffffffffffffffff167f17307eab39ab6107e8899845ad3d59bd9653f200f220920489ca2b5937696c318360405161128f9190611d92565b60405180910390a3505050565b60008373ffffffffffffffffffffffffffffffffffffffff163b1115611446578273ffffffffffffffffffffffffffffffffffffffff1663150b7a02868685856040518563ffffffff1660e01b81526004016112fb94939291906129a0565b6020604051808303816000875af192505050801561133757506040513d601f19601f820116820180604052508101906113349190612a01565b60015b6113bb573d8060008114611367576040519150601f19603f3d011682016040523d82523d6000602084013e61136c565b606091505b5060008151036113b357836040517f64a0ae920000000000000000000000000000000000000000000000000000000081526004016113aa9190611f03565b60405180910390fd5b805181602001fd5b63150b7a0260e01b7bffffffffffffffffffffffffffffffffffffffffffffffffffffffff1916817bffffffffffffffffffffffffffffffffffffffffffffffffffffffff19161461144457836040517f64a0ae9200000000000000000000000000000000000000000000000000000000815260040161143b9190611f03565b60405180910390fd5b505b5050505050565b606060405180602001604052806000815250905090565b606060006001611473846118fe565b01905060008167ffffffffffffffff81111561149257611491611fe7565b5b6040519080825280601f01601f1916602001820160405280156114c45781602001600182028036833780820191505090505b509050600082602001820190505b600115611527578080600190039150507f3031323334353637383961626364656600000000000000000000000000000000600a86061a8153600a858161151b5761151a612a2e565b5b049450600085036114d2575b819350505050919050565b60007f80ac58cd000000000000000000000000000000000000000000000000000000007bffffffffffffffffffffffffffffffffffffffffffffffffffffffff1916827bffffffffffffffffffffffffffffffffffffffffffffffffffffffff191614806115fd57507f5b5e139f000000000000000000000000000000000000000000000000000000007bffffffffffffffffffffffffffffffffffffffffffffffffffffffff1916827bffffffffffffffffffffffffffffffffffffffffffffffffffffffff1916145b8061160d575061160c82611a51565b5b9050919050565b60006002600083815260200190815260200160002060009054906101000a900473ffffffffffffffffffffffffffffffffffffffff169050919050565b808061168a5750600073ffffffffffffffffffffffffffffffffffffffff168273ffffffffffffffffffffffffffffffffffffffff1614155b156117be57600061169a84610dba565b9050600073ffffffffffffffffffffffffffffffffffffffff168373ffffffffffffffffffffffffffffffffffffffff161415801561170557508273ffffffffffffffffffffffffffffffffffffffff168173ffffffffffffffffffffffffffffffffffffffff1614155b801561171857506117168184610cc5565b155b1561175a57826040517fa9fbf51f0000000000000000000000000000000000000000000000000000000081526004016117519190611f03565b60405180910390fd5b81156117bc57838573ffffffffffffffffffffffffffffffffffffffff168273ffffffffffffffffffffffffffffffffffffffff167f8c5be1e5ebec7d5bd14f71427d1e84f3dd0314c0f7b2291e5b200ac8c7c3b92560405160405180910390a45b505b836004600085815260200190815260200160002060006101000a81548173ffffffffffffffffffffffffffffffffffffffff021916908373ffffffffffffffffffffffffffffffffffffffff16021790555050505050565b611821838383611abb565b6118d557600073ffffffffffffffffffffffffffffffffffffffff168373ffffffffffffffffffffffffffffffffffffffff160361189657806040517f7e27328900000000000000000000000000000000000000000000000000000000815260040161188d9190612239565b60405180910390fd5b81816040517f177e802f0000000000000000000000000000000000000000000000000000000081526004016118cc929190612a5d565b60405180910390fd5b505050565b6118e48383611b7c565b6118f96118ef610e7f565b600085858561129c565b505050565b600080600090507a184f03e93ff9f4daa797ed6e38ed64bf6a1f010000000000000000831061195c577a184f03e93ff9f4daa797ed6e38ed64bf6a1f010000000000000000838161195257611951612a2e565b5b0492506040810190505b6d04ee2d6d415b85acef81000000008310611999576d04ee2d6d415b85acef8100000000838161198f5761198e612a2e565b5b0492506020810190505b662386f26fc1000083106119c857662386f26fc1000083816119be576119bd612a2e565b5b0492506010810190505b6305f5e10083106119f1576305f5e10083816119e7576119e6612a2e565b5b0492506008810190505b6127108310611a16576127108381611a0c57611a0b612a2e565b5b0492506004810190505b60648310611a395760648381611a2f57611a2e612a2e565b5b0492506002810190505b600a8310611a48576001810190505b80915050919050565b60007f01ffc9a7000000000000000000000000000000000000000000000000000000007bffffffffffffffffffffffffffffffffffffffffffffffffffffffff1916827bffffffffffffffffffffffffffffffffffffffffffffffffffffffff1916149050919050565b60008073ffffffffffffffffffffffffffffffffffffffff168373ffffffffffffffffffffffffffffffffffffffff1614158015611b7357508273ffffffffffffffffffffffffffffffffffffffff168473ffffffffffffffffffffffffffffffffffffffff161480611b345750611b338484610cc5565b5b80611b7257508273ffffffffffffffffffffffffffffffffffffffff16611b5a83610e42565b73ffffffffffffffffffffffffffffffffffffffff16145b5b90509392505050565b600073ffffffffffffffffffffffffffffffffffffffff168273ffffffffffffffffffffffffffffffffffffffff1603611bee5760006040517f64a0ae92000000000000000000000000000000000000000000000000000000008152600401611be59190611f03565b60405180910390fd5b6000611bfc83836000610e99565b9050600073ffffffffffffffffffffffffffffffffffffffff168173ffffffffffffffffffffffffffffffffffffffff1614611c705760006040517f73c6ac6e000000000000000000000000000000000000000000000000000000008152600401611c679190611f03565b60405180910390fd5b505050565b6040518060e0016040528060008152602001600073ffffffffffffffffffffffffffffffffffffffff16815260200160608152602001606081526020016060815260200160608152602001600073ffffffffffffffffffffffffffffffffffffffff1681525090565b6000604051905090565b600080fd5b600080fd5b60007fffffffff0000000000000000000000000000000000000000000000000000000082169050919050565b611d2781611cf2565b8114611d3257600080fd5b50565b600081359050611d4481611d1e565b92915050565b600060208284031215611d6057611d5f611ce8565b5b6000611d6e84828501611d35565b91505092915050565b60008115159050919050565b611d8c81611d77565b82525050565b6000602082019050611da76000830184611d83565b92915050565b600081519050919050565b600082825260208201905092915050565b60005b83811015611de7578082015181840152602081019050611dcc565b60008484015250505050565b6000601f19601f8301169050919050565b6000611e0f82611dad565b611e198185611db8565b9350611e29818560208601611dc9565b611e3281611df3565b840191505092915050565b60006020820190508181036000830152611e578184611e04565b905092915050565b6000819050919050565b611e7281611e5f565b8114611e7d57600080fd5b50565b600081359050611e8f81611e69565b92915050565b600060208284031215611eab57611eaa611ce8565b5b6000611eb984828501611e80565b91505092915050565b600073ffffffffffffffffffffffffffffffffffffffff82169050919050565b6000611eed82611ec2565b9050919050565b611efd81611ee2565b82525050565b6000602082019050611f186000830184611ef4565b92915050565b611f2781611ee2565b8114611f3257600080fd5b50565b600081359050611f4481611f1e565b92915050565b60008060408385031215611f6157611f60611ce8565b5b6000611f6f85828601611f35565b9250506020611f8085828601611e80565b9150509250929050565b600080600060608486031215611fa357611fa2611ce8565b5b6000611fb186828701611f35565b9350506020611fc286828701611f35565b9250506040611fd386828701611e80565b9150509250925092565b600080fd5b600080fd5b7f4e487b7100000000000000000000000000000000000000000000000000000000600052604160045260246000fd5b61201f82611df3565b810181811067ffffffffffffffff8211171561203e5761203d611fe7565b5b80604052505050565b6000612051611cde565b905061205d8282612016565b919050565b600067ffffffffffffffff82111561207d5761207c611fe7565b5b61208682611df3565b9050602081019050919050565b82818337600083830152505050565b60006120b56120b084612062565b612047565b9050828152602081018484840111156120d1576120d0611fe2565b5b6120dc848285612093565b509392505050565b600082601f8301126120f9576120f8611fdd565b5b81356121098482602086016120a2565b91505092915050565b600080600080600060a0868803121561212e5761212d611ce8565b5b600061213c88828901611f35565b955050602086013567ffffffffffffffff81111561215d5761215c611ced565b5b612169888289016120e4565b945050604086013567ffffffffffffffff81111561218a57612189611ced565b5b612196888289016120e4565b935050606086013567ffffffffffffffff8111156121b7576121b6611ced565b5b6121c3888289016120e4565b925050608086013567ffffffffffffffff8111156121e4576121e3611ced565b5b6121f0888289016120e4565b9150509295509295909350565b60006020828403121561221357612212611ce8565b5b600061222184828501611f35565b91505092915050565b61223381611e5f565b82525050565b600060208201905061224e600083018461222a565b92915050565b61225d81611e5f565b82525050565b61226c81611ee2565b82525050565b600082825260208201905092915050565b600061228e82611dad565b6122988185612272565b93506122a8818560208601611dc9565b6122b181611df3565b840191505092915050565b600060e0830160008301516122d46000860182612254565b5060208301516122e76020860182612263565b50604083015184820360408601526122ff8282612283565b915050606083015184820360608601526123198282612283565b915050608083015184820360808601526123338282612283565b91505060a083015184820360a086015261234d8282612283565b91505060c083015161236260c0860182612263565b508091505092915050565b6000602082019050818103600083015261238781846122bc565b905092915050565b61239881611d77565b81146123a357600080fd5b50565b6000813590506123b58161238f565b92915050565b600080604083850312156123d2576123d1611ce8565b5b60006123e085828601611f35565b92505060206123f1858286016123a6565b9150509250929050565b600067ffffffffffffffff82111561241657612415611fe7565b5b61241f82611df3565b9050602081019050919050565b600061243f61243a846123fb565b612047565b90508281526020810184848401111561245b5761245a611fe2565b5b612466848285612093565b509392505050565b600082601f83011261248357612482611fdd565b5b813561249384826020860161242c565b91505092915050565b600080600080608085870312156124b6576124b5611ce8565b5b60006124c487828801611f35565b94505060206124d587828801611f35565b93505060406124e687828801611e80565b925050606085013567ffffffffffffffff81111561250757612506611ced565b5b6125138782880161246e565b91505092959194509250565b6000806040838503121561253657612535611ce8565b5b600061254485828601611f35565b925050602061255585828601611f35565b9150509250929050565b7f4e487b7100000000000000000000000000000000000000000000000000000000600052602260045260246000fd5b600060028204905060018216806125a657607f821691505b6020821081036125b9576125b861255f565b5b50919050565b60006060820190506125d46000830186611ef4565b6125e1602083018561222a565b6125ee6040830184611ef4565b949350505050565b7f4e487b7100000000000000000000000000000000000000000000000000000000600052601160045260246000fd5b600061263082611e5f565b91507fffffffffffffffffffffffffffffffffffffffffffffffffffffffffffffffff8203612662576126616125f6565b5b600182019050919050565b60008190508160005260206000209050919050565b60006020601f8301049050919050565b600082821b905092915050565b6000600883026126cf7fffffffffffffffffffffffffffffffffffffffffffffffffffffffffffffffff82612692565b6126d98683612692565b95508019841693508086168417925050509392505050565b6000819050919050565b600061271661271161270c84611e5f565b6126f1565b611e5f565b9050919050565b6000819050919050565b612730836126fb565b61274461273c8261271d565b84845461269f565b825550505050565b600090565b61275961274c565b612764818484612727565b505050565b5b818110156127885761277d600082612751565b60018101905061276a565b5050565b601f8211156127cd5761279e8161266d565b6127a784612682565b810160208510156127b6578190505b6127ca6127c285612682565b830182612769565b50505b505050565b600082821c905092915050565b60006127f0600019846008026127d2565b1980831691505092915050565b600061280983836127df565b9150826002028217905092915050565b61282282611dad565b67ffffffffffffffff81111561283b5761283a611fe7565b5b612845825461258e565b61285082828561278c565b600060209050601f8311600181146128835760008415612871578287015190505b61287b85826127fd565b8655506128e3565b601f1984166128918661266d565b60005b828110156128b957848901518255600182019150602085019450602081019050612894565b868310156128d657848901516128d2601f8916826127df565b8355505b6001600288020188555050505b505050505050565b600081905092915050565b600061290182611dad565b61290b81856128eb565b935061291b818560208601611dc9565b80840191505092915050565b600061293382856128f6565b915061293f82846128f6565b91508190509392505050565b600081519050919050565b600082825260208201905092915050565b60006129728261294b565b61297c8185612956565b935061298c818560208601611dc9565b61299581611df3565b840191505092915050565b60006080820190506129b56000830187611ef4565b6129c26020830186611ef4565b6129cf604083018561222a565b81810360608301526129e18184612967565b905095945050505050565b6000815190506129fb81611d1e565b92915050565b600060208284031215612a1757612a16611ce8565b5b6000612a25848285016129ec565b91505092915050565b7f4e487b7100000000000000000000000000000000000000000000000000000000600052601260045260246000fd5b6000604082019050612a726000830185611ef4565b612a7f602083018461222a565b939250505056fea2646970667358221220a89bc0601254818f6e9b0be45586a5b33432272db1580705f07f78d066a4b4ba64736f6c634300081c0033",
  "linkReferences": {},
  "deployedLinkReferences": {}
}